:0400000058EF00F0C5
:100008005B82FACF01F0FBCF02F0D9CF03F0DACF51
:1000180004F0F2AC12EF00F014EF00F04EEF00F035
:100028009DA819EF00F01BEF00F031EF00F09EA83B
:1000380020EF00F022EF00F031EF00F002D82FEFB0
:1000480000F00500FA6E0001FD51FD6EFE51FE6ED6
:10005800FF6AFA5012004EEF00F09DAA36EF00F04A
:1000680038EF00F04EEF00F09EAA3DEF00F03FEFB2
:1000780000F04EEF00F002D84CEF00F00500FA6EE9
:1000880001018251FD6E8351FE6EFF6AFA50120023
:100098004EEF00F004C0DAFF03C0D9FF02C0FBFF37
:0C00A80001C0FAFF5B9211004BEF25F045
:10100000004A4D224D124DAC3CC0413E4D8A43DC5E
:101010004DD44DCC4DC44DBC4DB44DAC4D324D6650
:101020004554656D70203D2025302E3266430D0AF3
:101030000058203D2025302E34666D54202020009D
:1010400059203D2025302E34666D54202020005A32
:10105000203D2025302E34666D5420202000494E3E
:1010600046004E414E00696E66006E616E006C6611
:101070000000000E00017B6F000E7A6F46C08CF0FE
:1010800047C08DF048C08EF049C08FF08FBF4DEF44
:1010900008F04BEF08F063EF08F0000E7B6F010ED5
:1010A0007A6F8CC005F08DC006F08EC007F08FC03F
:1010B00008F0E0EC24F005C08CF006C08DF007C00D
:1010C0008EF008C08FF0000E0001936F000E926F3B
:1010D000F6C07EF0F7C07FF07A517B11D8A473EF91
:1010E00008F075EF08F07CEF08F0FAA57AEF08F049
:1010F0007CEF08F096EF08F07A517B11D8A483EFCB
:1011000008F085EF08F08BEF08F0000E616F2B0EF2
:10111000606F8FEF08F0000E616F2D0E606F60C082
:1011200018F1924B932B7E07D8A07F078CC005F057
:101130008DC006F08EC007F08FC008F0C0EC1BF029
:1011400005040610D8A4A7EF08F0A9EF08F000EFF7
:1011500009F0BF0E4B6EFF0E4C6E4A504D6E4E6A3C
:101160004B504D264C504E224E500AE11A0E4D5C0B
:10117000D8A0BDEF08F0C0EF08F0010EC1EF08F0F5
:10118000000E0001626F636B62516311D8B4CBEF44
:1011900008F0CDEF08F0DBEF08F0180E9225056E91
:1011A000010E9321066E5E0E076E100E086E48EC5F
:1011B00023F0E7EF08F0180E9225056E010E93213B
:1011C000066E660E076E100E086E48EC23F00001E6
:1011D000FD0E7E27FF0E7F2344C017F045C018F098
:1011E000180E196E010E1A6E7EC01BF07FC01CF027
:1011F00091EC1DF017C044F018C045F08BEF0EF0D5
:101200008CC005F08DC006F08EC007F08FC008F0CE
:10121000C0EC1BF005500610D8A411EF09F013EF35
:1012200009F06AEF09F0BF0E4B6EFF0E4C6E4A508C
:101230004D6E4E6A4B504D264C504E224E500AE198
:101240001A0E4D5CD8A027EF09F02AEF09F0010E25
:101250002BEF09F0000E0001646F656B645165119E
:10126000D8B435EF09F037EF09F045EF09F0180E63
:101270009225056E010E9321066E620E076E100E0A
:10128000086E48EC23F051EF09F0180E9225056E18
:10129000010E9321066E6A0E076E100E086E48EC62
:1012A00023F00001FD0E7E27FF0E7F2344C017F0C0
:1012B00045C018F0180E196E010E1A6E7EC01BF094
:1012C0007FC01CF091EC1DF017C044F018C045F031
:1012D0008BEF0EF0000E0001946F000E956F800EE4
:1012E000966F3F0E976F000E916F000E906F8CC03F
:1012F00005F08DC006F08EC007F08FC008F0000E1C
:10130000096E000E0A6E000E0B6E000E0C6E8BEC5A
:1013100020F0D8B08EEF09F090EF09F013EF0AF04B
:10132000AFEF09F094C013F095C014F096C015F01B
:1013300097C016F0000E176E000E186E200E196E74
:10134000410E1A6E9FEC13F013C094F014C095F088
:1013500015C096F016C097F00001904B912B8CC0F1
:101360002CF08DC02DF08EC02EF08FC02FF0000E0F
:10137000176E000E186E200E196E410E1A6E94C074
:1013800013F095C014F096C015F097C016F09FECBE
:1013900013F013C030F014C031F015C032F016C095
:1013A00033F03EEC1BF0D8B0D8EF09F0DAEF09F0DB
:1013B00092EF09F0FAEF09F094C005F095C006F03D
:1013C00096C007F097C008F0000E096E000E0A6E76
:1013D000200E0B6E410E0C6EB4EC15F005C094F0AF
:1013E00006C095F007C096F008C097F0000190077E
:1013F000D8A091078CC02CF08DC02DF08EC02EF09F
:101400008FC02FF094C030F095C031F096C032F00C
:1014100097C033F03EEC1BF0D8A011EF0AF013EFA9
:101420000AF0DCEF09F04AC00BF00C6A18EC23F06C
:101430000B500001816F81C080F0670E8119D8A424
:1014400024EF0AF026EF0AF04CEF0AF0F851F911F8
:10145000D8A42DEF0AF02FEF0AF033EF0AF0000EB8
:10146000F96F010EF86FF9BF40EF0AF0F95106E18C
:10147000F805D8B03EEF0AF040EF0AF046EF0AF068
:10148000000E7D6F060E7C6F55EF0AF0F8C07CF001
:10149000F9C07DF055EF0AF0F9BF51EF0AF053EFB4
:1014A0000AF040EF0AF046EF0AF0670E8119D8A45F
:1014B0005CEF0AF05EEF0AF08DEF0AF091AF6CEF8F
:1014C0000AF0FC0E905DFF0E9159D8A06AEF0AF069
:1014D0006CEF0AF08BEF0AF0FF0E4B6EFF0E4C6EB6
:1014E0007CC04DF07DC04EF04B504D264C504E22EE
:1014F00090514D5C4E50800A4F6E9151800A4F586A
:10150000D8A085EF0AF087EF0AF08BEF0AF0660E9D
:10151000806F8DEF0AF0650E806F7CC072F07DC029
:1015200073F0670E8119D8A498EF0AF09AEF0AF0C9
:10153000AAEF0AF0660E8019D8A4A1EF0AF0A3EF73
:101540000AF0ACEF0AF091BFAAEF0AF0A8EF0AF098
:10155000ACEF0AF0724B732B660E8019D8A4B3EF70
:101560000AF0B5EF0AF0D5EF0AF091BFBCEF0AF030
:10157000BAEF0AF0C8EF0AF0000E946F000E956FF4
:10158000800E966F3F0E976F000E916F000E906F5A
:10159000670E8119D8B4CFEF0AF0D1EF0AF0D5EF7A
:1015A0000AF09051722791517323000E8B6F000E39
:1015B0008A6F8CC082F08DC083F08EC084F08FC0A3
:1015C00085F094C074F095C075F096C076F097C021
:1015D00077F066EF0BF082C005F083C006F084C0A0
:1015E00007F085C008F094C009F095C00AF096C0D5
:1015F0000BF097C00CF0B4EC15F005C01EF006C05F
:101600001FF007C020F008C021F081EC17F01EC0C9
:1016100086F01FC087F020C088F021C089F086C006
:1016200005F087C006F088C007F089C008F0BBEC61
:101630001AF005C078F006C079F082C03CF083C093
:101640003DF084C03EF085C03FF094C017F095C0D7
:1016500018F096C019F097C01AF086C013F087C032
:1016600014F088C015F089C016F09FEC13F013C079
:1016700040F014C041F015C042F016C043F0F9EC40
:1016800023F03CC082F03DC083F03EC084F03FC0F8
:1016900085F094C005F095C006F096C007F097C09D
:1016A00008F0000E096E000E0A6E200E0B6E410E41
:1016B0000C6EB4EC15F005C094F006C095F007C0B0
:1016C00096F008C097F000018A4B8B2B72518A5D0F
:1016D0008B51800A4B6E7351800A4B58D8A073EF20
:1016E0000BF075EF0BF0EBEF0AF094C013F095C020
:1016F00014F096C015F097C016F0000E176E000E8D
:10170000186EA00E196E400E1A6E9FEC13F013C0E7
:1017100086F014C087F015C088F016C089F082C02A
:101720002CF083C02DF084C02EF085C02FF086C031
:1017300030F087C031F088C032F089C033F03EEC21
:101740001BF0D8B0A6EF0BF0A8EF0BF0B3EF0BF047
:10175000000E0001866F000E876F000E886F000E6E
:10176000896FDCEF0BF082C005F083C006F084C007
:1017700007F085C008F086C009F087C00AF088C06D
:101780000BF089C00CF08BEC20F0D8A0CAEF0BF066
:10179000CCEF0BF0DCEF0BF0000178B1D2EF0BF0E7
:1017A000D4EF0BF0DCEF0BF0000E866F000E876FAE
:1017B000000E886F000E896F8CC02CF08DC02DF04C
:1017C0008EC02EF08FC02FF086C030F087C031F071
:1017D00088C032F089C033F03FEC11F02CC082F0A9
:1017E0002DC083F02EC084F02FC085F082C02CF075
:1017F00083C02DF084C02EF085C02FF0000E176E30
:10180000000E186E200E196E410E1A6E74C013F081
:1018100075C014F076C015F077C016F09FEC13F089
:1018200013C030F014C031F015C032F016C033F0E0
:101830003EEC1BF0D8A01FEF0CF021EF0CF04AEFAC
:101840000CF00001904B912B74C013F075C014F094
:1018500076C015F077C016F0000E176E000E186EE9
:10186000200E196E410E1A6E9FEC13F013C074F027
:1018700014C075F015C076F016C077F0660E000142
:101880008019D8A446EF0CF048EF0CF04AEF0CF0AA
:10189000724B732B74C094F075C095F076C096F0BF
:1018A00077C097F0650E00018019D8B45AEF0CF09C
:1018B0005CEF0CF062EF0CF090C070F091C071F032
:1018C00066EF0CF0000E716F000E706F000E6F6F00
:1018D000000E6E6F000E6D6F000E6C6F000E8B6F42
:1018E000000E8A6F61EF0DF082C005F083C006F034
:1018F00084C007F085C008F094C009F095C00AF0D4
:1019000096C00BF097C00CF0B4EC15F005C01EF0BB
:1019100006C01FF007C020F008C021F081EC17F0CE
:101920001EC086F01FC087F020C088F021C089F05B
:1019300086C005F087C006F088C007F089C008F0AF
:10194000BBEC1AF005C078F006C079F00001FAB9D6
:10195000ACEF0CF0AEEF0CF0CBEF0CF0785179114E
:10196000D8A4B5EF0CF0B7EF0CF0CBEF0CF0670E8E
:101970008119D8A4BEEF0CF0C0EF0CF0CBEF0CF047
:1019800071BFC7EF0CF0C5EF0CF0CBEF0CF06C4B58
:101990006D2B15EF0DF06E516F11D8A4D2EF0CF036
:1019A000D4EF0CF0FEEF0CF071BFDBEF0CF0D9EFD1
:1019B0000CF0FEEF0CF0180E9225D96E010E93215B
:1019C000DA6E2E0EDF6E924B932B7E07D8A07F0728
:1019D000000E6F6F010E6E6FFEEF0CF0180E922569
:1019E000D96E010E9321DA6E300EDF6E924B932B7F
:1019F0007E07D8A07F076C07D8A06D076C516D11CA
:101A0000D8A405EF0DF007EF0DF0EEEF0CF0180E77
:101A10009225D96E010E9321DA6E7851300FDF6E68
:101A2000924B932B7E07D8A07F0782C03CF083C0E7
:101A30003DF084C03EF085C03FF094C017F095C0E3
:101A400018F096C019F097C01AF086C013F087C03E
:101A500014F088C015F089C016F09FEC13F013C085
:101A600040F014C041F015C042F016C043F0F9EC4C
:101A700023F03CC082F03DC083F03EC084F03FC004
:101A800085F094C005F095C006F096C007F097C0A9
:101A900008F0000E096E000E0A6E200E0B6E410E4D
:101AA0000C6EB4EC15F005C094F006C095F007C0BC
:101AB00096F008C097F000017007D8A071078A4B14
:101AC0008B2B72518A5D8B51800A4B6E7351800A49
:101AD0004B58D8B06EEF0DF070EF0DF07EEF0DF0BB
:101AE00093BF7CEF0DF0935109E14B0E925DD8A0AE
:101AF0007CEF0DF07EEF0DF074EF0CF06E516F1176
:101B0000D8A485EF0DF087EF0DF098EF0DF0FAA94E
:101B10008CEF0DF08EEF0DF098EF0DF0180E922572
:101B2000D96E010E9321DA6E2E0EDF6E924B932B3F
:101B3000180E9225D96E010E9321DA6E000EDF6E1B
:101B4000650E8019D8A4A7EF0DF0A9EF0DF079EF7D
:101B50000EF0000E8B6F4F0E8A6F180E8A25D96E0D
:101B6000010E8B21DA6E000EDF6E000E7B6F000E11
:101B70007A6F91BFC0EF0DF0BEEF0DF0C8EF0DF022
:101B8000000E7B6F010E7A6F906D911FD8B0912B74
:101B9000000E7D6F020E7C6FF9EF0DF08A07D8A062
:101BA0008B07180E8A25D96E010E8B21DA6E90C034
:101BB00005F091C006F0000E086E0A0E076E33ECB9
:101BC00020F00550300FDF6E90C005F091C006F098
:101BD000000E086E0A0E076EF4EC1DF005C090F0C2
:101BE00006C091F000017C07D8A07D077E07D8A031
:101BF0007F0790519111D8A400EF0EF002EF0EF084
:101C0000CEEF0DF07DBF0FEF0EF07D5106E17C05AC
:101C1000D8B00DEF0EF00FEF0EF0CEEF0DF08A07FB
:101C2000D8A08B077A517B11D8A419EF0EF01BEFC7
:101C30000EF021EF0EF0000E676F2B0E666F25EF92
:101C40000EF0000E676F2D0E666F180E8A25D96E86
:101C5000010E8B21DA6E66C0DFFF7E07D8A07F07FA
:101C60008A07D8A08B07BF0E4B6EFF0E4C6E4A50F2
:101C70004D6E4E6A4B504D264C504E224E500AE14E
:101C80001A0E4D5CD8A047EF0EF04AEF0EF0010E91
:101C90004BEF0EF0000E6A6F6B6B6A516B11D8A49C
:101CA00054EF0EF056EF0EF05CEF0EF0000E696F81
:101CB000650E686F60EF0EF0000E696F450E686F7D
:101CC000180E8A25D96E010E8B21DA6E68C0DFFFEF
:101CD0007E07D8A07F07180E9225056E010E93216E
:101CE000066E180E8A25076E010E8B21086E48ECD1
:101CF00023F044C017F045C018F0180E196E010EFD
:101D00001A6E7EC01BF07FC01CF091EC1DF017C056
:101D100044F018C045F0120052C0D9FF53C0DAFF9A
:101D2000DECFF6FFDDCFF7FFF86A0800F550250A91
:101D3000D8A49DEF0EF09FEF0EF022EF11F052C0ED
:101D4000D9FF53C0DAFFDE2A000EDD22000E0001AB
:101D5000F76F000EF66FF6C0FAF0F7C0FBF0F86907
:101D6000F969000E9D6F000E9C6FFEEF0EF0FA8178
:101D700052C0D9FF53C0DAFFDE2A000EDD22FEEF8B
:101D80000EF0FA83B8EF0EF0FA85B8EF0EF0FA878E
:101D9000B8EF0EF0FA89B8EF0EF0000E9D6F010E4D
:101DA0009C6FFEEF0EF052C0D9FF53C0DAFFDECFBA
:101DB000F6FFDDCFF7FFF86A0800F550986F996BD2
:101DC0009951000AD8B4E7EF0EF0CDEF0EF098511C
:101DD000200AD8B4C7EF0EF0030AD8B4CAEF0EF049
:101DE000080AD8B4C4EF0EF0060AD8B4B7EF0EF064
:101DF0001D0AD8B4C1EF0EF0CDEF0EF09C519D112D
:101E0000D8B405EF0FF007EF0FF0D3EF0EF0FAA103
:101E10000CEF0FF00EEF0FF00FEF0FF0FA9352C030
:101E2000D9FF53C0DAFFDECFF6FFDDCFF7FFF86A48
:101E30000800F5502E0AD8A420EF0FF022EF0FF083
:101E4000A2EF0FF0000EF96F000EF86F52C0D9FF2D
:101E500053C0DAFFDE2A000EDD2252C0D9FF53C084
:101E6000DAFFDECFF6FFDDCFF7FFF86A0800F550A6
:101E70002A0AD8A43EEF0FF040EF0FF05DEF0FF00D
:101E800052C0D9FF53C0DAFFDE2A000EDD2254C053
:101E9000D9FF55C0DAFFDFCF98F0020EDE26DFCF84
:101EA00099F0000EDD2298C0D9FF99C0DAFFDECF8D
:101EB000F8F0DDCFF9F0A2EF0FF052C0D9FF53C018
:101EC000DAFFDECF0CF0DDCF0DF064EC19F00CC0C2
:101ED000F8F00DC0F9F074EF0FF052C0D9FF53C005
:101EE000DAFFDE2A000EDD22D00E0001986FFF0E11
:101EF000996F52C0D9FF53C0DAFFDECFF6FFDDCFB6
:101F0000F7FFF86A0800F5509A6F9B6B98519A2773
:101F100099519B239B510AE10A0E9A5DD8A093EF39
:101F20000FF096EF0FF0010E97EF0FF0000E9E6F7F
:101F30009F6B9E519F11D8A4A0EF0FF0A2EF0FF05E
:101F40006DEF0FF052C0D9FF53C0DAFFDECFF6FFBE
:101F5000DDCFF7FFF86A0800F5500B6E0C6A18EC3D
:101F600023F00B500001A66FA651D8B4BAEF0FF0C2
:101F7000BCEF0FF0F8EF0FF052C0D9FF53C0DAFFFB
:101F8000DECF98F0DDCF99F0010E9827000E99234F
:101F900098C0F6FF99C0F7FFF86A0800F5500B6E7D
:101FA0000C6A18EC23F00B500001A76FA751D8B4AE
:101FB000DCEF0FF0DEEF0FF0F8EF0FF052C0D9FFBB
:101FC00053C0DAFFDECF98F0DDCF99F0020E9827EC
:101FD000000E992398C0F6FF99C0F7FFF86A080031
:101FE000F5500B6E0C6A18EC23F00B500001A86F33
:101FF000660EA619D8A4FFEF0FF001EF10F042EF24
:1020000010F052C0D9FF53C0DAFFDECFF6FFDDCFAC
:10201000F7FFF86A0800F5CFA9F052C0D9FF53C006
:10202000DAFFDE2A000EDD2254C0D9FF55C0DAFFE8
:10203000DFCF98F0040EDE26DFCF99F0000EDD2210
:1020400098C0D9FF99C0DAFFDECFA2F0DECFA3F0AF
:10205000DECFA4F0DECFA5F050C044F051C045F073
:10206000A2C046F0A3C047F0A4C048F0A5C049F004
:10207000A9C04AF039EC08F044C050F045C051F016
:102080003EEF11F0A60E056E000E066E6E0E076E88
:10209000100E086E000E0A6E020E096EB5EC1CF0F2
:1020A00005500610D8A457EF10F059EF10F0EBEFE1
:1020B00010F052C0D9FF53C0DAFFDECF98F0DDCF69
:1020C00099F0010E00019827000E992398C0F6FFA1
:1020D00099C0F7FFF86A0800F5CFA9F0BF0E986F16
:1020E000FF0E996F52C0D9FF53C0DAFFDECFF6FF63
:1020F000DDCFF7FFF86A0800F5509A6F9B6B985197
:102100009A2799519B239B510AE11A0E9A5DD8A0F8
:102110008CEF10F08FEF10F0010E90EF10F0000E2A
:10212000A06FA16BA051A111D8B499EF10F09BEF53
:1021300010F0B5EF10F054C0D9FF55C0DAFFDFCF73
:1021400098F0040EDE26DFCF99F0000EDD2298C055
:10215000D9FF99C0DAFFDECFA2F0DECFA3F0DECF49
:10216000A4F0DECFA5F0CDEF10F054C0D9FF55C0DC
:10217000DAFFDFCF98F0040EDE26DFCF99F0000EF5
:10218000DD2298C0D9FF99C0DAFFDECFA2F0DECF02
:10219000A3F0DECFA4F0DECFA5F0020E52C0D9FF2F
:1021A00053C0DAFFDE26000EDD2250C044F051C0DD
:1021B00045F0A2C046F0A3C047F0A4C048F0A5C0B7
:1021C00049F0A9C04AF039EC08F044C050F045C0CD
:1021D00051F03EEF11F052C0D9FF53C0DAFFDECF0D
:1021E000F6FFDDCFF7FFF86A0800F550250AD8A4FE
:1021F000FCEF10F0FEEF10F015EF11F052C0D9FF18
:1022000053C0DAFFDE2A000EDD22000E086E250E16
:10221000076E50C009F051C00AF033EC21F0000EF7
:10222000516E010E506E3EEF11F052C0D9FF53C0F7
:10223000DAFFDE2A000EDD22000E516E000E506E17
:102240003EEF11F052C0D9FF53C0DAFFDECFF6FFE8
:10225000DDCFF7FFF86A0800F550076E086A50C036
:1022600009F051C00AF033EC21F052C0D9FF53C03D
:10227000DAFFDE2A000EDD220FEF11F012002F50E0
:10228000800B386E2F502F243A6E2EAE4AEF11F08D
:102290004CEF11F04DEF11F03A803A50D8B453EFB3
:1022A00011F055EF11F06AEF11F03A28D8A45BEF66
:1022B00011F05DEF11F065EF11F0000E2C6E000EC5
:1022C0002D6E000E2E6E000E2F6E2E8E000E2F6EB7
:1022D00072EF11F0000E2C6E000E2D6E000E2E6EA1
:1022E000000E2F6E3350800B396E38503918D8B429
:1022F0007CEF11F07EEF11F07FEF11F0388C33504E
:102300003324396E32AE87EF11F089EF11F08AEF86
:1023100011F039803950D8B490EF11F092EF11F0EC
:10232000A7EF11F03928D8A498EF11F09AEF11F027
:10233000A2EF11F0000E306E000E316E000E326E04
:10234000000E336E328E000E336EAFEF11F0000EC2
:10235000306E000E316E000E326E000E336E3A504B
:10236000395CD8B0B6EF11F0B8EF11F0DFEF11F033
:1023700038ACBDEF11F0BFEF11F0C1EF11F0800EDE
:10238000381A3AC03BF039C03AF03BC039F02CC0A3
:102390003BF030C02CF03BC030F02DC03BF031C0E2
:1023A0002DF03BC031F02EC03BF032C02EF03BC0D0
:1023B00032F02FC03BF033C02FF03BC033F0000EA3
:1023C0003B6E3A5039C034F0356A345E000E355AEF
:1023D00035BEF4EF11F0355009E11A0E345CD8A087
:1023E000F4EF11F0F6EF11F02DEF12F02C502D104C
:1023F0002E102F10D8A4FFEF11F002EF12F0010EF3
:1024000003EF12F0000E3B6E000E2C6E000E2D6ED0
:10241000000E2E6E000E2F6E39C03AF036EF12F01D
:102420003BA015EF12F017EF12F01DEF12F0D8904D
:102430003B3001093B6E1FEF12F0D8903B322CA0CD
:1024400024EF12F026EF12F027EF12F03B8E2F341C
:102450002F322E322D322C323A2A39503A5CD8A003
:1024600034EF12F036EF12F010EF12F038BC3BEF01
:1024700012F03DEF12F07DEF12F03A50D8A443EF86
:1024800012F045EF12F04FEF12F0000E2C6E000E1E
:102490002D6E000E2E6E000E2F6E9EEF13F030503C
:1024A0002C2631502D2232502E2233502F222FA095
:1024B0005CEF12F05EEF12F00AEF13F03BA063EF57
:1024C00012F065EF12F06BEF12F0D8903B3001097B
:1024D0003B6E6DEF12F0D8903B322CA072EF12F0F1
:1024E00074EF12F075EF12F03B8E2F342F322E3234
:1024F0002D322C323A2A0AEF13F030502C5C315036
:102500002D5832502E582F50800A346E3350800A86
:102510003458D8B08EEF12F090EF12F0BBEF12F0FB
:102520002C50305C346E2D503158356E2E50325850
:10253000366E2F503358376EFF0E34242C6EFF0E3C
:1025400035202D6EFF0E36202E6EFF0E37202F6E9B
:10255000800E381A3B6C3B50D8A4B1EF12F0B3EFA9
:1025600012F0C3EF12F0010E2C26000E2D222E22A7
:102570002F22C3EF12F030502C5E31502D5A3250C2
:102580002E5A33502F5A2C502D102E102F10D8A405
:10259000CCEF12F0CEEF12F003EF13F03B50D8A4C3
:1025A000D4EF12F0D6EF12F003EF13F0000E2C6E02
:1025B000000E2D6E000E2E6E000E2F6E9EEF13F08D
:1025C000D8902C362D362E362F363BAEEAEF12F051
:1025D000ECEF12F0EDEF12F02C803BA0F2EF12F0D6
:1025E000F4EF12F0F8EF12F0D8803B36FAEF12F069
:1025F000D8903B363A50D8B400EF13F002EF13F006
:1026000003EF13F03A062EAE08EF13F00AEF13F0C3
:10261000E0EF12F0000E396E3BAE11EF13F013EF46
:1026200013F02BEF13F03BC034F07F0E3416D8B408
:102630001CEF13F01EEF13F022EF13F0010E396EB2
:102640002BEF13F02CA027EF13F029EF13F02BEF53
:1026500013F01EEF13F03950D8B431EF13F033EF0D
:1026600013F05EEF13F0010E2C26000E2D222E2209
:102670002F222FA03EEF13F040EF13F05EEF13F088
:102680002CC034F02DC035F02EC036F02FC037F0FE
:102690003734373236323532343234C02CF035C02C
:1026A0002DF036C02EF037C02FF03A28D8B45BEFAB
:1026B00013F05DEF13F05EEF13F03A2A3A28D8B426
:1026C00064EF13F066EF13F06EEF13F03A50D8A4F6
:1026D0006CEF13F06EEF13F080EF13F0000E2C6E22
:1026E000000E2D6E000E2E6E000E2F6E3A50D8A4E6
:1026F0007CEF13F07EEF13F080EF13F0000E386ED6
:102700003AA085EF13F087EF13F08AEF13F02E8EC7
:102710008BEF13F02E9ED8903A302F6E38AE93EF99
:1027200013F095EF13F096EF13F02F8E2CC02CF0D2
:102730002DC02DF02EC02EF02FC02FF012001650FD
:10274000800B1F6E16501624256E15AEAAEF13F0DF
:10275000ACEF13F0ADEF13F025802550D8B4B3EFF4
:1027600013F0B5EF13F0C8EF13F02528D8A4BBEF92
:1027700013F0BDEF13F0C5EF13F0000E136E000E53
:10278000146E000E156E000E166E158ED0EF13F03F
:10279000000E136E000E146E000E156E000E166EF7
:1027A0001A50800B1F1A1A501A24206E19AEDBEF34
:1027B00013F0DDEF13F0DEEF13F020802050D8B4DB
:1027C000E4EF13F0E6EF13F0F9EF13F02028D8A4AC
:1027D000ECEF13F0EEEF13F0F6EF13F0000E176EC0
:1027E000000E186E000E196E000E1A6E198E01EF93
:1027F00014F0000E176E000E186E000E196E000E0B
:102800001A6E2050D8B407EF14F009EF14F011EF4E
:1028100014F02550D8A40FEF14F011EF14F01BEFB3
:1028200014F0000E136E000E146E000E156E000EE6
:10283000166EB3EF15F019501302F3CF2AF0F4CF50
:102840002BF02A50216E226A236A246A2B50266EAE
:10285000276A286A296A18501402F3CF2AF0F4CFA5
:102860002BF02A502126000E2222232224222B5034
:102870002626000E27222822292217501502F3CFE0
:102880002AF0F4CF2BF02A502126000E22222322F8
:1028900024222B502626000E27222822292223C05C
:1028A00024F022C023F021C022F0216A1750140224
:1028B000F3CF2AF0F4CF2BF02A5021262B502222DE
:1028C000000E2322000E242218501302F3CF2AF008
:1028D000F4CF2BF02A5021262B502222000E232247
:1028E000000E242223C024F022C023F021C022F0B5
:1028F000216A17501302F3CF2AF0F4CF2BF02A509D
:1029000021262B502222000E2322000E24221950B1
:102910001402F3CF2AF0F4CF2BF02A5026262B50A6
:102920002722000E2822000E292218501502F3CF6C
:102930002AF0F4CF2BF02A5026262B502722000E07
:102940002822000E292219501502F3CF2AF0F4CFC5
:102950002BF02A501B6E2B501C6E1D6A1E6A1DC068
:102960001EF01CC01DF01BC01CF01B6A1B5026264D
:102970001C5027221D5028221E50292221C01BF046
:1029800022C01CF023C01DF024C01EF0190ECEEF93
:1029900014F0D8901E321D321C321B32E82EC9EFC3
:1029A00014F01B5026261C5027221D5028221E5092
:1029B000292223C024F022C023F021C022F0216A62
:1029C000205025C01BF01C6A1B26000E1C22820E04
:1029D0001B242A6EFF0E1C202B6E04EF15F0D890DE
:1029E000263627362836293624AEF9EF14F0FBEFC9
:1029F00014F0FCEF14F02680D890213622362336CE
:102A000024362A06D8A02B0628AE09EF15F00BEFC6
:102A100015F0EFEF14F0000E206E24AE12EF15F05B
:102A200014EF15F038EF15F0FF0E21141B6EFF0E9A
:102A300022141C6EFF0E23141D6E7F0E24141E6EB6
:102A40001B501C101D101E10D8B429EF15F02BEFD1
:102A500015F02FEF15F0010E206E38EF15F026A0BF
:102A600034EF15F036EF15F038EF15F02BEF15F0C9
:102A70002050D8B43EEF15F040EF15F064EF15F09C
:102A8000010E2626000E27222822292229A04BEFFC
:102A900015F04DEF15F064EF15F026C01BF027C0C0
:102AA0001CF028C01DF029C01EF01E341E321D323D
:102AB0001C321B321BC026F01CC027F01DC028F0A2
:102AC0001EC029F02A4A2B2A2BBE6FEF15F02B507F
:102AD00008E12A28D8A06FEF15F071EF15F07BEF11
:102AE00015F0000E266E000E276E800E286E7F0EEB
:102AF000296EA9EF15F02BBE88EF15F02B5006E1DB
:102B00002A04D8B086EF15F088EF15F094EF15F091
:102B1000000E266E000E276E000E286E000E296E27
:102B2000000E1F6EA9EF15F02AC025F0FF0E261625
:102B3000FF0E27167F0E2816000E291625A0A3EFDC
:102B400015F0A5EF15F0A6EF15F0288ED8902530DA
:102B5000296E1F50291226C013F027C014F028C078
:102B600015F029C016F012000850800B156E0850A1
:102B700008241C6E07AEBFEF15F0C1EF15F0C2EFD1
:102B800015F01C801C50D8B4C8EF15F0CAEF15F032
:102B9000DFEF15F01C28D8A4D0EF15F0D2EF15F018
:102BA000DAEF15F0000E056E000E066E000E076ED1
:102BB000000E086E078E000E086EE7EF15F0000E8F
:102BC000056E000E066E000E076E000E086E0C50AD
:102BD000800B151A0C500C241D6E0BAEF2EF15F085
:102BE000F4EF15F0F5EF15F01D801D50D8B4FBEF94
:102BF00015F0FDEF15F012EF16F01D28D8A403EF25
:102C000016F005EF16F00DEF16F0000E096E000E2F
:102C10000A6E000E0B6E000E0C6E0B8E000E0C6E0C
:102C20001AEF16F0000E096E000E0A6E000E0B6E03
:102C3000000E0C6E09500A100B100C10D8A423EFD4
:102C400016F025EF16F03DEF16F0000E056E000EA3
:102C5000066E000E076E000E086E800E07127F0EC5
:102C600008121550081205C005F006C006F007C08E
:102C700007F008C008F080EF17F01C50D8A443EF0D
:102C800016F045EF16F04FEF16F0000E056E000E31
:102C9000066E000E076E000E086E80EF17F01D50D6
:102CA0001CC00DF00E6A0D5E000E0E5A7F0E0D2434
:102CB000166E000E0E20176E05C011F006C012F041
:102CC00007C013F008C014F0000E056E000E066E6B
:102CD000000E076E000E086E000E186E000E196EC4
:102CE000000E1A6E000E1B6E000E1D6EB0EF16F079
:102CF0001D50D8B47EEF16F080EF16F097EF16F067
:102D0000D8901136123613361436D890053606365A
:102D1000073608361BAE8FEF16F091EF16F092EFE4
:102D200016F00580D890183619361A361B36095019
:102D3000115C0A5012580B5013580C501458D8A05C
:102D4000A4EF16F0A6EF16F0AFEF16F01B8C0950AB
:102D5000115E0A50125A0B50135A0C50145A1D2A65
:102D6000190E1D64B6EF16F0B8EF16F078EF16F0F6
:102D70001150121013101410D8B4C1EF16F0C3EF95
:102D800016F0DBEF16F01880DBEF16F0D890053662
:102D90000636073608361BAED0EF16F0D2EF16F027
:102DA000D3EF16F00580D890183619361A361B3630
:102DB0001606D8A0170607AEE0EF16F0E2EF16F001
:102DC000C6EF16F0000E1D6E1BAEE9EF16F0EBEF2E
:102DD00016F00FEF17F0FF0E18140D6EFF0E1914FA
:102DE0000E6EFF0E1A140F6E7F0E1B14106E0D5018
:102DF0000E100F101010D8B400EF17F002EF17F0FC
:102E000006EF17F0010E1D6E0FEF17F005A00BEF88
:102E100017F00DEF17F00FEF17F002EF17F01D503E
:102E2000D8B415EF17F017EF17F03BEF17F0010EBE
:102E30000526000E06220722082208A022EF17F01E
:102E400024EF17F03BEF17F005C00DF006C00EF0B1
:102E500007C00FF008C010F0103410320F320E32DD
:102E60000D320DC005F00EC006F00FC007F010C007
:102E700008F0164A172A17BE46EF17F0175008E158
:102E80001628D8A046EF17F048EF17F053EF17F0C9
:102E9000000E176E1668000E056E000E066E000E10
:102EA000076E000E086E17BE60EF17F0175006E1B0
:102EB0001604D8B05EEF17F060EF17F06EEF17F062
:102EC000000E176E000E166E000E056E000E066EDA
:102ED000000E076E000E086E000E156E16C01CF078
:102EE0001CA075EF17F077EF17F07AEF17F0078E49
:102EF0007BEF17F0079ED8901C30086E31EF16F06C
:102F00001200DCC02EF0DDC02FF0DEC030F0DFC0DC
:102F100031F01EC02EF01FC02FF020C030F021C0B5
:102F200031F0810E226EFF0E236E2EC024F02FC0D2
:102F300025F030C026F031C027F0180EA5EF17F0AD
:102F4000D8902732263225322432E82EA0EF17F00F
:102F5000245022242C6E000E23202D6E2DBEBAEF9D
:102F600017F02D5009E1170E2C5CD8A0BAEF17F01E
:102F7000BCEF17F0C6EF17F01EC01EF01FC01FF009
:102F800020C020F021C021F089EF18F02DBECBEF3A
:102F900017F0CDEF17F03DEF18F02CC022F0FF0E28
:102FA000236EFF0E246E7F0E256E000E266E2266A7
:102FB000DCEF17F0E4EF17F0263426322532243206
:102FC0002332222ED7EF17F023C028F024C029F097
:102FD00025C02AF026C02BF028502E14226E29502E
:102FE0002F14236E2A503014246E2B503114256E6A
:102FF0002250231024102510D8A401EF18F003EF5D
:1030000018F005EF18F0BCEF17F02EC022F02FC01B
:1030100023F030C024F031C025F0200E15EF18F059
:10302000D8902532243223322232E82E10EF18F0C5
:103030002250231024102510D8B421EF18F023EFCC
:1030400018F02BEF18F028502E2629502F222A5046
:1030500030222B503122281C226E291C236E2A1C60
:10306000246E2B1C256E22502E1623502F16245012
:1030700030162550311681EF18F02EC022F02FC0E7
:1030800023F030C024F031C025F0200E4DEF18F0B1
:10309000D8902532243223322232E82E48EF18F01D
:1030A0002250231024102510D8A459EF18F05BEFFC
:1030B00018F065EF18F0000E2E6E000E2F6E000E49
:1030C000306E000E316E81EF18F0D8902E34226EE3
:1030D0002F34236E3034246E3134256E2250231069
:1030E00024102510D8B477EF18F079EF18F081EF9D
:1030F00018F0000E2E6E000E2F6E800E306EBF0E7A
:10310000316E2EC01EF02FC01FF030C020F031C035
:1031100021F012000D6E0D50D8B491EF18F093EF1E
:1031200018F0B5EF18F008BE9AEF18F098EF18F005
:10313000B5EF18F005C009F006C00AF007C00BF0A3
:1031400008C00CF0091E0A1E0B1E0C1E092A000ED8
:103150000A220B220C2209C00FF00AC010F00BC08B
:1031600011F00CC012F0BDEF18F005C00FF006C052
:1031700010F007C011F008C012F00550061007103B
:103180000810D8A4C6EF18F0C8EF18F0D2EF18F066
:10319000000E056E000E066E000E076E000E086E25
:1031A00063EF19F0960E0E6EDCEF18F00E2AD89031
:1031B0001232113210320F32000E0F14096E000E4F
:1031C00010140A6E000E11140B6EFE0E12140C6E0B
:1031D00009500A100B100C10D8A4F1EF18F0F3EFFF
:1031E00018F0D6EF18F001EF19F00E2A010E0F2695
:1031F000000E102211221222D890123211321032F7
:103200000F32000E0F14096E000E10140A6E000E1D
:1032100011140B6EFF0E12140C6E09500A100B10D5
:103220000C10D8A416EF19F018EF19F0F5EF18F0FC
:1032300020EF19F00E06D8900F36103611361236E0
:1032400011BE25EF19F027EF19F02FEF19F0020E3C
:103250000E602DEF19F02FEF19F01AEF19F00EB0E4
:1032600034EF19F036EF19F037EF19F0119ED890BE
:103270000E320EC009F00A6A0B6A0C6A09C00CF023
:103280000B6A0A6A096A09500F120A5010120B5091
:1032900011120C5012120D50D8B451EF19F053EF17
:1032A00019F05BEF19F008BE5AEF19F058EF19F05A
:1032B0005BEF19F0128E0FC005F010C006F011C0C0
:1032C00007F012C008F01200000E1A6E000E196E00
:1032D000000E136E000E126E70EF19F00C4A0D2ADC
:1032E000010E186E0CC0F6FF0DC0F7FFF86A08005B
:1032F000F550200AD8B47FEF19F081EF19F09FEF55
:1033000019F0F70E0E6EFF0E0F6E0CC0F6FF0DC01B
:10331000F7FFF86A0800F550106E116A0E5010267B
:103320000F501122115009E1050E105CD8A09BEF3F
:1033300019F09DEF19F09FEF19F0000E186E18C0EC
:1033400014F0156A14501510D8A4A9EF19F0ABEFBA
:1033500019F06EEF19F0B5EF19F0000E136E010EB3
:10336000126E0C4A0D2AECEF19F00CC0F6FF0DC0DE
:10337000F7FFF86A0800F5500E6E0F6A0F50000A4A
:10338000D8B4C5EF19F0ECEF19F00E502B0AD8B4F1
:10339000B1EF19F0060AD8B4ADEF19F0ECEF19F05F
:1033A00019C005F01AC006F0000E086E0A0E076E6E
:1033B000F9EC25F00CC0F6FF0DC0F7FFF86A080025
:1033C000F550055E000E065A300E0524196E000EEB
:1033D00006201A6EB1EF19F0D00E0E6EFF0E0F6EB2
:1033E0000CC0F6FF0DC0F7FFF86A0800F550106E2C
:1033F000116A0E5010260F50112211500AE10A0EC8
:10340000105CD8A006EF1AF009EF1AF0010E0AEFCF
:103410001AF0000E166E176A16501710D8A413EF84
:103420001AF015EF1AF0D0EF19F012501310D8A4BB
:103430001CEF1AF01EEF1AF02CEF1AF019C00EF064
:103440001AC00FF00E1E0F1E0E4A0F2A0EC00CF0EF
:103450000FC00DF030EF1AF019C00CF01AC00DF0CB
:10346000120062EC26F023EC1DF0060E0101876FBE
:10347000130E866FAD0EE82EFED7862FFCD7872F52
:10348000FAD700F000F0F28EF28CB8EC1EF02CC0EF
:10349000F0F02DC0F1F02EC0F2F02FC0F3F077EC79
:1034A0001FF02CC0ECF02DC0EDF02EC0EEF02FC0C0
:1034B000EFF019EC1FF02CC0E8F02DC0E9F02EC0A1
:1034C000EAF02FC0EBF03FEC1CF03CC0E4F03DC054
:1034D000E5F03EC0E6F03FC0E7F0310E0001B26F0C
:1034E000100EB36FF0C0B4F0F1C0B5F0F2C0B6F09A
:1034F000F3C0B7F0CFEC25F0400E0001B26F100E14
:10350000B36FECC0B4F0EDC0B5F0EEC0B6F0EFC0F4
:10351000B7F0CFEC25F04F0E0001B26F100EB36F75
:10352000E8C0B4F0E9C0B5F0EAC0B6F0EBC0B7F05F
:10353000CFEC25F0210E0001B26F100EB36FE4C086
:10354000B4F0E5C0B5F0E6C0B6F0E7C0B7F0CFEC38
:1035500025F0060E0101876F130E866FAD0EE82E63
:10356000FED7862FFCD7872FFAD700F000F045EF63
:103570001AF058EF00F0073408340E6E0E50D8A43D
:10358000C4EF1AF0C6EF1AF0D0EF1AF0000E056E75
:10359000000E066E000E076E000E086E3DEF1BF06B
:1035A00005C009F006C00AF007C00BF008C00CF017
:1035B000200EE0EF1AF0D8900C320B320A320932AA
:1035C000E82EDBEF1AF009500D6E078EFF0E051680
:1035D000FF0E0616FF0E0716000E0816960E0E5E5C
:1035E0000EBEF7EF1AF0F5EF1AF00DEF1BF00E50CC
:1035F000800A970FD8B0FFEF1AF001EF1BF003EF2E
:103600001BF0C6EF1AF0D8900832073206320532A6
:103610000E3E03EF1BF025EF1BF01F0E0E6413EFA1
:103620001BF015EF1BF01DEF1BF0C6EF1AF0D89042
:1036300005360636073608360E060E50D8A423EF98
:103640001BF025EF1BF017EF1BF00D50D8B42BEF3C
:103650001BF02DEF1BF035EF1BF0081E071E061E9A
:10366000056C000E06220722082205C005F006C0E0
:1036700006F007C007F008C008F01200000E2C1476
:10368000346E000E2D14356E800E2E14366E7F0EA5
:103690002F14376E3450351036103710D8A453EF2E
:1036A0001BF055EF1BF05DEF1BF0000E2C6E000EB3
:1036B0002D6E000E2E6E000E2F6E000E3014346E26
:1036C000000E3114356E800E3214366E7F0E3314B8
:1036D000376E3450351036103710D8A472EF1BF007
:1036E00074EF1BF07CEF1BF0000E306E000E316E9D
:1036F000000E326E000E336E2FAE81EF1BF083EFA3
:103700001BF08CEF1BF02C6C2D1ED8B02D2A2E1E1A
:10371000D8B02E2A800E2F5633AE91EF1BF093EFC8
:103720001BF09CEF1BF0306C311ED8B0312A321EDA
:10373000D8B0322A800E3356000E2C1A000E2D1AE5
:10374000000E2E1A800E2F1A000E301A000E311A9B
:10375000000E321A800E331A30502C5C31502D5826
:1037600032502E5833502F58D8B0B9EF1BF0BBEF62
:103770001BF0BEEF1BF0D890BFEF1BF0D8801200FB
:10378000E0C00FF0E1C010F0E2C011F0E3C012F0B1
:1037900005C00FF006C010F007C011F008C012F00D
:1037A0000FC009F010C00AF011C00BF012C00CF0ED
:1037B000180EE0EF1BF0D8900C320B320A320932AF
:1037C000E82EDBEF1BF009500D6E0E6A0D500E1047
:1037D000D8A4EDEF1BF0EFEF1BF00FEF1CF0D8902B
:1037E0000F34096E10340A6E11340B6E12340C6EE5
:1037F00009500A100B100C10D8A401EF1CF003EFB5
:103800001CF009EF1CF0000E066E020E056E3EEF76
:103810001CF0000E066E030E056E3EEF1CF00D2828
:103820000E10D8A416EF1CF018EF1CF03AEF1CF0A5
:103830000FC009F010C00AF011C00BF012C00CF05C
:10384000090ED89009360A360B360C36E82E21EFD1
:103850001CF009500A100B100C10D8B432EF1CF0F9
:1038600035EF1CF0010E36EF1CF0000E056E066AF7
:103870003EEF1CF0000E066E040E056E12003EECCC
:1038800026F06BC146F0476A46C040F047C041F0A1
:10389000403A413AF00E411640500F0B4112F00EE3
:1038A000401640C046F041C047F0000E4614466E38
:1038B0000F0E4714476E465001016E11466E475079
:1038C000476E47BE6CEF1CF04604080E4758D8A060
:1038D0006CEF1CF06EEF1CF074EF1CF0000E462431
:1038E000466EF00E4720476ECD0E176ECC0E186E4A
:1038F0008C0E196E3F0E1A6E46C005F047C006F0DA
:10390000000E06BEFF0E076E086E010E8AEC18F060
:1039100005C013F006C014F007C015F008C016F07B
:103920009FEC13F013C02CF014C02DF015C02EF036
:1039300016C02FF0000E306E000E316EAA0E326EE1
:10394000C30E336E3FEC11F02CC042F02DC043F09B
:103950002EC044F02FC045F042C03CF043C03DF0C3
:1039600044C03EF045C03FF0120005C00CF006C058
:103970000DF007C00EF008C00FF00906D8A00A0627
:10398000092806E10A28D8A4C8EF1CF0CAEF1CF0E9
:10399000D7EF1CF0000E066E000E056E22EF1DF034
:1039A0000C4A0D2A0E4A0F2A0906D8A00A060CC096
:1039B000D9FF0DC0DAFFDF50D8B4E1EF1CF0E3EF20
:1039C0001CF010EF1DF00EC0F6FF0FC0F7FFF86AF5
:1039D0000800F5500009D8B4F0EF1CF0F2EF1CF02D
:1039E00010EF1DF009500A10D8B4F9EF1CF0FBEFEE
:1039F0001CF010EF1DF00CC0D9FF0DC0DAFFDF5036
:103A00000B6E0EC0F6FF0FC0F7FFF86A0800F55006
:103A10000B18D8B40EEF1DF010EF1DF0D0EF1CF016
:103A20000CC0D9FF0DC0DAFFDF500B6E0EC0F6FFE1
:103A30000FC0F7FFF86A0800F5500B5C056E066AC8
:103A4000D8A006061200020E1C6E040E1B6EBA0EE3
:103A5000E82EFED71B2EFCD71C2EFAD700F000F064
:103A6000680E166E010E176E000E196E0A0E186E95
:103A70005E0E1CEC24F0000E0101726F000E1D6E34
:103A80006F51D8B446EF1DF048EF1DF04AEF1DF01E
:103A9000010E1D6E1DC073F1010E1E6E7351D8A470
:103AA00054EF1DF056EF1DF058EF1DF0000E1E6E86
:103AB0001EC073F170C174F1000E1F6E7151D8B445
:103AC00064EF1DF066EF1DF068EF1DF0010E1F6E34
:103AD0001FC075F1010E206E7351D8A472EF1DF056
:103AE00074EF1DF076EF1DF0000E206E20C075F112
:103AF000720E166E010E176E000E196E0A0E186EFB
:103B00005E0E77EC23F0020E1C6E040E1B6EBA0ED6
:103B1000E82EFED71B2EFCD71C2EFAD700F000F0A3
:103B200012000001FAA197EF1DF099EF1DF0A3EF2D
:103B30001DF019C010F01AC011F017C012F018C013
:103B400013F03FEC24F01CBEA8EF1DF0AAEF1DF00F
:103B5000B0EF1DF01BC020F01CC021F0B4EF1DF031
:103B6000000E216E000E206E000E1F6E000E1E6EE7
:103B7000C6EF1DF0000E086E200E076E17C009F08C
:103B800018C00AF033EC21F01E4A1F2A20501E5C98
:103B90001F50800A1D6E2150800A1D58D8A0D3EFF7
:103BA0001DF0D5EF1DF0BAEF1DF00001FAB1DBEF0B
:103BB0001DF0DDEF1DF0E7EF1DF019C010F01AC089
:103BC00011F017C012F018C013F03FEC24F019C028
:103BD00005F01AC006F018EC25F020500524176EE9
:103BE00021500620186E1200000E0A6E08BEFDEF6E
:103BF0001DF0FBEF1DF003EF1EF0076C081ED8B0A0
:103C0000082A010E0A6E06BE0AEF1EF008EF1EF02B
:103C100010EF1EF0056C061ED8B0062A010E0A1A17
:103C2000000E0C6E000E0B6E07500810D8B41BEF80
:103C30001EF01DEF1EF045EF1EF0010E096E25EF80
:103C40001EF0D89007360836092A08AE2AEF1EF073
:103C50002CEF1EF021EF1EF0D8900B360C360750DB
:103C6000055C08500658D8A038EF1EF03AEF1EF059
:103C70003FEF1EF00750055E0850065A0B80D890A3
:103C800008320732092E2CEF1EF00A50D8B44BEF41
:103C90001EF04DEF1EF051EF1EF00B6C0C1ED8B055
:103CA0000C2A0BC005F00CC006F012006DEC26F0DB
:103CB0000009D8B45EEF1EF060EF1EF09BEF1EF01F
:103CC0006EEF1EF0EEEC26F0B7EF1EF0EAEC26F0F9
:103CD000B7EF1EF0E2EC26F0B7EF1EF0CAC00EF010
:103CE000CBC00FF002D87FEF1EF00500FA6E000186
:103CF000BE51FD6EBF51FE6EFF6AFA501200106E8B
:103D0000116A1150000AD8B488EF1EF06AEF1EF055
:103D10001050010AD8B46AEF1EF0030AD8B462EF5B
:103D20001EF0010AD8B466EF1EF0070AD8B46AEF95
:103D30001EF06AEF1EF00001DB91D5C0D9FFD6C09E
:103D4000DAFFD54BD62BDF50F2EC26F00001D70777
:103D5000D8A0D807D751D811D8A4B1EF1EF0B3EF2F
:103D60001EF0B6EF1EF0060EB7EF1EF0030E1200A7
:103D70003EEC26F068C136F0376A36C030F037C006
:103D800031F0303A313AF00E311630500F0B31121B
:103D9000F00E301630C036F031C037F06CC130F064
:103DA000303A0F0E30160F0E30163050361237BE26
:103DB000E2EF1EF03604080E3758D8A0E2EF1EF0EE
:103DC000E4EF1EF0EAEF1EF0000E3624366EF00E21
:103DD0003720376E36C005F037C006F0000E06BE3D
:103DE000FF0E076E086E010E8AEC18F005C013F086
:103DF00006C014F007C015F008C016F0390E176E93
:103E0000B40E186EC80E196E3D0E1A6E9FEC13F0AC
:103E100013C032F014C033F015C034F016C035F0C2
:103E200032C02CF033C02DF034C02EF035C02FF04E
:103E300012003EEC26F06AC136F0376A36C030F028
:103E400037C031F0303A313AF00E311630500F0BA6
:103E50003112F00E301630C036F031C037F06DC17F
:103E600030F00F0E30163050361237BE40EF1FF0D4
:103E70003604080E3758D8A040EF1FF042EF1FF06D
:103E800048EF1FF0000E3624366EF00E3720376EE6
:103E900036C005F037C006F0000E06BEFF0E076EF6
:103EA000086E010E8AEC18F005C013F006C014F07D
:103EB00007C015F008C016F0390E176EB40E186E54
:103EC000C80E196E3D0E1A6E9FEC13F013C032F03F
:103ED00014C033F015C034F016C035F032C02CF0E9
:103EE00033C02DF034C02EF035C02FF012003EEC60
:103EF00026F069C136F0376A36C030F037C031F08D
:103F0000303A313AF00E311630500F0B3112F00EBC
:103F1000301630C036F031C037F06CC130F00F0EC3
:103F200030163050361237BE9EEF1FF03604080EA2
:103F30003758D8A09EEF1FF0A0EF1FF0A6EF1FF09C
:103F4000000E3624366EF00E3720376E36C005F080
:103F500037C006F0000E06BEFF0E076E086E010E9B
:103F60008AEC18F005C013F006C014F007C015F075
:103F700008C016F0390E176EB40E186EC80E196E02
:103F80003D0E1A6E9FEC13F013C032F014C033F0E4
:103F900015C034F016C035F032C02CF033C02DF00F
:103FA00034C02EF035C02FF01200000E5824D96E08
:103FB000DA6A010EDA22000EDF6EABA4E2EF1FF028
:103FC000E4EF1FF0F8EF1FF0000E5824D96EDA6A04
:103FD000010EDA220101DF8202D8F8EF1FF005009E
:103FE000FA6E8051FD6E8151FE6EFF6AFA5012002A
:103FF000ABA2FDEF1FF0FFEF1FF013EF20F0000E5C
:104000005824D96EDA6A010EDA220101DF8402D85F
:1040100013EF20F00500FA6E7E51FD6E7F51FE6EAB
:10402000FF6AFA501200000E5824D96EDA6A010EA7
:10403000DA22DF50D8B41FEF20F021EF20F030EF6C
:1040400020F002D82EEF20F00500FA6E01017C511D
:10405000FD6E7D51FE6EFF6AFA50120032EF20F0C5
:10406000E4EC25F01200000E0A6E06BE3CEF20F0D4
:104070003AEF20F042EF20F0056C061ED8B0062A79
:10408000010E0A6E08BE49EF20F047EF20F04DEF19
:1040900020F0076C081ED8B0082A07500810D8B4C2
:1040A00054EF20F056EF20F07AEF20F0010E096E69
:1040B0005EEF20F0D89007360836092A08AE63EF85
:1040C00020F065EF20F05AEF20F00750055C085013
:1040D0000658D8A06EEF20F070EF20F074EF20F0BB
:1040E0000750055E0850065AD89008320732092E4C
:1040F00065EF20F00A50D8B480EF20F082EF20F076
:1041000086EF20F0056C061ED8B0062A05C005F023
:1041100006C006F01200000E05140D6E000E061407
:104120000E6E800E07140F6E7F0E0814106E0D5069
:104130000E100F101010D8A4A0EF20F0A2EF20F066
:10414000AAEF20F0000E056E000E066E000E076E40
:10415000000E086E000E09140D6E000E0A140E6E8D
:10416000800E0B140F6E7F0E0C14106E0D500E107F
:104170000F101010D8A4BFEF20F0C1EF20F0C9EF4E
:1041800020F0000E096E000E0A6E000E0B6E000E7F
:104190000C6E095005180FE10A5006180CE10B507F
:1041A000071809E10C500818D8B4D9EF20F0DBEF5C
:1041B00020F0DEEF20F0D890DFEF20F0D880120062
:1041C00004EC27F0D5C0D9FFD6C0DAFFDF6E0001BE
:1041D000D54BD62BD707D8A0D807D751D811D8B4EC
:1041E000F4EF20F0F6EF20F0FBEF20F0F6EC26F0F5
:1041F000050E32EF21F0DB8706EF21F0D6EC26F03A
:1042000032EF21F0DAEC26F032EF21F0C4C00EF0EC
:10421000C5C00FF002D816EF21F00500FA6EB851B4
:10422000FD6EB951FE6EFF6AFA501200106E116AEF
:104230001150000AD8B41FEF21F002EF21F0105006
:10424000010AD8B402EF21F0030AD8B4FEEF20F03F
:10425000010AD8B4FEEF20F0070AD8B402EF21F02B
:1042600002EF21F0120009500A10D8B43AEF21F001
:104270003CEF21F045EF21F009500A10D8A443EF9C
:1042800021F045EF21F04AEF21F00750ABEC26F08A
:104290007DEF21F020EE04F00950D9260A50DA22F1
:1042A000DE50DE10D8B457EF21F059EF21F074EF53
:1042B00021F020EE04F00950D9260A50DA2210EE3F
:1042C00002F00950E1260A50E222DE50E65CE65098
:1042D000800A0F6EDE50800A0F58D8B072EF21F0BE
:1042E00074EF21F07DEF21F020EE02F00950D92685
:1042F0000A50DA22DE2A000EDD221200056E010EBF
:10430000066E0001DBB587EF21F089EF21F0C3EFE6
:1043100021F005C0D4F0DB93DB85DB910E0ED96F65
:10432000010ED36FF40ED26FDB87140EB86F4E0EF2
:10433000B96F000EC46F000EC56F140EBA6F4E0E2B
:10434000BB6F000EC66F000EC76F140EBC6F4E0E13
:10435000BD6F000EC86F000EC96F140EBE6F4E0EFB
:10436000BF6F000ECA6F000ECB6F100EC06F4E0EE7
:10437000C16F000ECC6F000ECD6F16EC27F01EEC57
:1043800026F0000E066E065012000001DB87D6EF05
:1043900021F0E6EC26F002EF22F002EC27F0030E0B
:1043A00002EF22F0E2EC26F002EF22F0C4C00EF0A1
:1043B000C5C00FF002D8E6EF21F00500FA6EB85143
:1043C000FD6EB951FE6EFF6AFA501200106E116A4E
:1043D0001150000AD8B4EFEF21F0D2EF21F01050C5
:1043E000010AD8B4D2EF21F0030AD8B4C9EF21F002
:1043F000010AD8B4C9EF21F0070AD8B4CDEF21F0F3
:10440000D2EF21F01200096E05500610D8B40BEF60
:1044100022F00DEF22F027EF22F00950020DB80E26
:10442000F324D96E000EF420DA6E05C0DEFF06C05C
:10443000DDFF0950020DC40EF324D96E000EF420E6
:10444000DA6E07C0DEFF08C0DDFF3FEF22F0095043
:10445000020DB80EF324D96E000EF420DA6E140E9D
:10446000DE6E4E0EDD6E0950020DC40EF324D96EC1
:10447000000EF420DA6E000EDE6E000EDD6E12000D
:104480009D9AAA0E056E3F0E066EBAEC26F09D9818
:10449000060E056E490E066EB5EC26F0080EB86ED7
:1044A000900EAB6E240EAC6ECF0EAF6E000EB06EE3
:1044B000340E056E4E0E066EC4EC26F0F80E056E38
:1044C0004D0E066EBFEC26F0FE0E056E4D0E066E0E
:1044D000C9EC26F0000E0001FC6F000E5A6E000EB3
:1044E000596E080EFF6F000E586E000E576E000ECC
:1044F000566E9D8A120016EC27F00001DBA183EFB7
:1045000022F085EF22F092EF22F06DEC26F0000908
:10451000D8B48DEF22F08FEF22F092EF22F00F0E41
:104520000001D96F0001D951020D010EF324F66E7E
:10453000100EF420F76EF86A000EF8220900F5CF8D
:1045400012F00900F5CF13F002D8B0EF22F0050009
:10455000FA6E1250FD6E1350FE6EFF6AFA50120092
:104560000001D96F12000001DB91020EDA6FC1EF7A
:1045700022F0E6EC26F0E5EF22F0E2EC26F0E5EFA3
:1045800022F0C8C00EF0C9C00FF002D8D1EF22F05F
:104590000500FA6EBC51FD6EBD51FE6EFF6AFA5009
:1045A0001200106E116A1150000AD8B4DAEF22F02E
:1045B000BDEF22F01050020AD8B4B9EF22F0010A80
:1045C000D8B4B9EF22F0BDEF22F01200ACC0B0F0C9
:1045D000ADC0B1F0000E0001F56F000EF46F04EFF6
:1045E00023F0AAC050F0ABC051F0B00E526E000ED6
:1045F000536EAEC054F0AFC055F08CEC0EF050507E
:104600000001F4275150F523B0C0F6FFB1C0F7FF09
:10461000F86A0800F5500009D8A411EF23F013EF51
:1046200023F0F1EF22F0F4C0AAF0F5C0ABF01200D5
:10463000BF0E0D6EFF0E0E6E0BC00FF00CC010F013
:104640000D500F260E50102210500AE11A0E0F5C6A
:10465000D8A02DEF23F030EF23F0010E31EF23F03F
:10466000000E116E126A11501210D8B43AEF23F0F6
:104670003CEF23F043EF23F0200E0B100B6E0C5099
:104680000C6E47EF23F00BC00BF00CC00CF01200C7
:1046900007C00BF008C00CF005C00DF006C00EF00E
:1046A0000B50096E0C500A6E0B4A0C2A09C0F6FF1B
:1046B0000AC0F7FF000EF86E0DC0D9FF0EC0DAFF7A
:1046C0000D4A0E2A0F0EF76403D00800F55005D0EE
:1046D000F6CFE9FFF7CFEAFFEF50DF6EDF50D8A447
:1046E00074EF23F076EF23F050EF23F012001A6EF0
:1046F0001A507EEC21F00009D8B481EF23F083EF4B
:1047000023F078EF23F016C005F017C006F018C0AC
:1047100007F019C008F00CEC26F0000E0A6E000E2F
:104720000B6E000E0C6E000E0D6E4AEC26F0CEECF9
:1047300026F0B9EC25F0E806D8B4A1EF23F0A3EFFA
:1047400023F099EF23F01200056E0001FF51D8B459
:10475000ACEF23F0AEEF23F0A5EF23F09DB8B3EF5D
:1047600023F0B5EF23F0B9EF23F005C0ADFFCEEF96
:1047700023F09D98100E5A24D96EDA6A010EDA22BF
:1047800005C0DFFF5A2A070E5A64C9EF23F0CBEFAA
:1047900023F0CDEF23F0000E5A6EFF079D88120024
:1047A000010E0B6E200E05180610D8B4DAEF23F0B8
:1047B000DCEF23F0F5EF23F0F70E076EFF0E086E27
:1047C00005C009F006C00AF00750092608500A2261
:1047D0000A5009E1050E095CD8A0F1EF23F0F3EFD0
:1047E00023F0F5EF23F0000E0B6E0BC005F0066A08
:1047F0001200000E401A000E411A000E421A800EDE
:10480000431A3CC02CF03DC02DF03EC02EF03FC0FE
:104810002FF040C030F041C031F042C032F043C010
:1048200033F03FEC11F02CC03CF02DC03DF02EC019
:104830003EF02FC03FF012001A6E1A507EEC21F0AD
:104840000009D8B426EF24F028EF24F01DEF24F05F
:1048500016C005F017C006F018C007F019C008F020
:104860000CEC26F0D2EC26F0B9EC25F0E806D8B432
:104870003CEF24F03EEF24F034EF24F01200000E61
:10488000166E000E156E50EF24F014C007F0086A83
:1048900012C009F013C00AF033EC21F0154A162AB1
:1048A00015501024D96E16501120DA6EDF50146E98
:1048B0001450D8A45EEF24F060EF24F045EF24F00C
:1048C0001200146E010E156E0001DBB36AEF24F0C6
:1048D0006CEF24F081EF24F0DB83000E156E145092
:1048E000D8B475EF24F077EF24F07BEF24F0010EBD
:1048F000D96F7DEF24F0020ED96F10EC27F02FEC6A
:1049000026F015501200080E0001FF618AEF24F016
:104910008CEF24F0A2EF24F0100E5924D96EDA6A3D
:10492000010EDA22DF50AD6E592A070E59649BEF53
:1049300024F09DEF24F09FEF24F0000E596EFF2B22
:10494000A3EF24F09D98120020EE02F00E50D9261D
:104950000F50DA22DECF05F0DDCF06F00EC0D9FF12
:104960000FC0DAFFDECF07F0DDCF08F00CEC26F049
:10497000000E0A6E000E0B6E000E0C6E000E0D6E19
:1049800056EC26F0020E1200BF0E076EFF0E086EE8
:1049900005C009F006C00AF00750092608500A228F
:1049A0000A500AE11A0E095CD8A0D9EF24F0DCEF16
:1049B00024F0010EDDEF24F0000E056E066A1200F1
:1049C0000550061007100810D8B4E9EF24F0EBEFFB
:1049D00024F0F3EF24F0000E051A000E061A000E64
:1049E000071A800E081A05C005F006C006F007C0B9
:1049F00007F008C008F01200D00E076EFF0E086E18
:104A000005C009F006C00AF00750092608500A221E
:104A10000A500AE10A0E095CD8A011EF25F014EF44
:104A200025F0010E15EF25F0000E056E066A120046
:104A300005C007F006C008F020EF25F0054A062A59
:104A400005C0D9FF06C0DAFFDF50D8A42AEF25F051
:104A50002CEF25F01EEF25F00750055C056E085081
:104A60000658066E1200000E8D6E000E8C6E000E43
:104A7000896E000E8A6E000E8B6E070E966E92681F
:104A80009368BF0E946E95687E681F0E7F6E000E51
:104A90007C6EF18E120001EE00F07C0EEE6AE806EC
:104AA000FDE100EEB8F0450EEE6AE806FDE15A6A57
:104AB000596A586A576A566A5B905B92000131EFF7
:104AC0001AF00EC005F00FC006F0000E086E010EC1
:104AD000076E0CEC26F0000E0A6E000E0B6E000E38
:104AE0000C6E000E0D6E56EC26F0040E12000EC079
:104AF00005F00FC006F0000E086E020E076E0CECFB
:104B000026F0000E0A6E000E0B6E000E0C6E000EEC
:104B10000D6E56EC26F0020E12000EC005F00FC00E
:104B200006F0000E086E010E076E0CEC26F0000E6B
:104B30000A6E000E0B6E000E0C6E000E0D6E56EC23
:104B400026F0020E12000EC005F00FC006F0000E97
:104B5000086E020E076E0CEC26F0000E0A6E000EB8
:104B60000B6E000E0C6E000E0D6E56EC26F0040E51
:104B70001200010E056E0001DBB3C1EF25F0C3EF9B
:104B800025F0CDEF25F0DB95D46916EC27F012EC7B
:104B900027F014EC27F0DAC005F005501200B40E2F
:104BA0000101846F000E856F000E0001AA6F000ED8
:104BB000AB6FB2C0ACF0B3C0ADF0840EAE6F010EFF
:104BC000AF6FE6EC22F01200080E5824D96EDA6AB4
:104BD000010EDA22AECFDFFF582A070E5864F3EF3A
:104BE00025F0F5EF25F0F7EF25F0000E586E562A68
:104BF000120005500702F3CF09F0F4CF0AF0055078
:104C00000802F3500A2606500702F3500A2609C08C
:104C100005F00AC006F012000001DBA712EF26F033
:104C200014EF26F01DEF26F005C0D5F006C0D6F033
:104C300007C0D7F008C0D8F0DB971200C6BA23EF40
:104C400026F025EF26F02EEF26F0000EC76E080E98
:104C5000C66E000EC56E130EC86EC68A120035EF02
:104C600026F081EC26F07BEC22F00001DBB33BEF79
:104C700026F03DEF26F031EF26F01200680E166E9A
:104C8000010E176E000E196E070E186E5E0E1CECEC
:104C900024F012000AC005F00BC006F00CC007F0AB
:104CA0000DC008F0020E03EC22F012000AC005F05D
:104CB0000BC006F00CC007F00DC008F0000E03ECAE
:104CC00022F0120018EC27F077EC26F033EC25F0F8
:104CD000B0EC26F040EC22F01200C5BC72EF26F0DA
:104CE00075EF26F0010E76EF26F0000E1200000E92
:104CF000C76E080EC66E000EC56E130EC86EC69A3D
:104D000012009EA686EF26F088EF26F081EF26F0AF
:104D100012000001DB81D451D425F2EC26F0030E01
:104D200012000001DB81D880D435F2EC26F0050EAC
:104D300012000001DB93000EDA6F0E0E120000016C
:104D4000DB9106EC27F0040E12000001DB93000E4D
:104D5000DA6F0E0E1200066E0650A4EC23F012005D
:104D6000600ED36E000E9B6E120005C0FDF006C0F3
:104D7000FEF0120005C082F106C083F1120005C0EA
:104D80007EF106C07FF1120005C080F106C081F1FE
:104D9000120005C07CF106C07DF11200000E61EC2E
:104DA00024F01200010E61EC24F01200F9EC26F060
:104DB000090E1200F9EC26F00A0E1200F6EC26F0AD
:104DC000050E12000CEC27F0000E12000EEC27F07E
:104DD000010E12000EEC27F0020E12000EEC27F06E
:104DE000010E1200056E05C0C9FF1200C59AC588E4
:104DF0001200C58AC5881200AB98AB881200E4EC9B
:104E000025F012009E861200C9501200C5861200BD
:104E1000050E1200010E1200C5841200C582120098
:104E2000C58012009D961200C69A12009E9612002E
:064E3000D09E12001200EA
:020000040020DA
:08000000FFFFFFFFFFFFFFFF00
:020000040030CA
:0E000000FF081F1EFF0B81FF0FC00FE00F4017
:00000001FF
